:1000000010C02AC029C028C027C026C09EC224C054
:1000100023C0C5C121C020C01FC01EC01DC033C326
:100020004CC311241FBECFE5D1E0DEBFCDBF10E031
:10003000A0E6B0E0E8E6F8E002C005900D92A6392F
:10004000B107D9F721E0A6E9B0E001C01D92A832BE
:10005000B207E1F7C8D006C4D3CF87E087BBD798F3
:100060000895CF92DF92EF92FF926A017B01FC012B
:1000700020E030E0A90160E070E0CB012C153D05E7
:100080004E055F0559F0A191B1916A0F7B1F811D4B
:10009000911D2F5F3F4F4F4F5F4FF0CFC1D3CA012C
:1000A000B90124EE3CE040E050E0A1D32AE096956F
:1000B0008795779567952A95D1F7FF90EF90DF9018
:1000C000CF900895CF9381E087B9369AC091D3003D
:1000D000CA3050F41AD2EC2FF0E0EE0FFF1FE154BB
:1000E000FF4F9183808319C04AE050E060E070E0E8
:1000F0008FEB90E0B6DFAB01BC0142585340610981
:1001000071098091BE00463C51056105710510F4EE
:10011000816001C08E7F8093BE0082E087B9369AED
:10012000C091D300CA3050F4F0D1EC2FF0E0EE0FC4
:10013000FF1FE655FF4F9183808319C04AE050E0CE
:1001400060E070E08AEA90E08CDFAB01BC014555CD
:100150005140610971098091BE004332510561052A
:10016000710510F4826001C08D7F8093BE0083E032
:1001700087B9369AC091D300CA3050F4C6D1EC2F5B
:10018000F0E0EE0FFF1FEA56FF4F9183808319C006
:100190004AE050E060E070E086E990E062DFAB01A9
:1001A000BC0141575240610971098091BE00413440
:1001B00051056105710510F4846001C08B7F809347
:1001C000BE008091D3008A3018F01092D30003C093
:1001D0008F5F8093D3008091BE00CF9B8095877006
:1001E00088BBCF91089539DF88D18FD1009731F046
:1001F000BC0180E090E00DD08111D5D103D078947E
:1002000061DFFECF82E386BF82E089BF80BF83BF0C
:100210000895CF92DF92EF92FF920F931F9324EEF7
:100220003CE040E050E0E3D28B019C018AE036954F
:100230002795179507958A95D1F7E6E7F0E080E0D6
:1002400090E0419151916A0162E3C61AD108E12C14
:10025000F12CC016D106E206F30670F44E5C5F4F37
:1002600060E070E0041715072607370728F4FC0143
:10027000EA59FF4F808105C001968031910509F749
:1002800080E01F910F91FF90EF90DF90CF90089545
:10029000AF92BF92CF92DF92EF92FF920F931F9394
:1002A000CF93DF93C091D400D091D500DF77D45F96
:1002B000B3D1E82E8170B82E1DB8D49880EF8EB9D6
:1002C00080E187BF6E01F12C0FEF10E0AA24A39408
:1002D000FE14D1F0B3D190E0C0FE10C0982F882753
:1002E000082B192B07B600FCFDCFE199FECFF601D4
:1002F0000801A0925700E895112401C08C01FFEF7E
:10030000CF1ADF0AF394E4CFFE01EF0DF11DBB20FD
:1003100099F08091D4009091D50080FD0DC0C80166
:100320009F6F07B600FCFDCFE199FECF21E00C01E5
:1003300020935700E8951124E091D400F091D50066
:10034000FF77F45FCF01807C9F70E817F90749F4CD
:1003500007B600FCFDCFE199FECF83E08093570004
:10036000E89507B600FCFDCFE199FECF85E08093CC
:100370005700E89588EA8DB980EF8EB9D49ADF915D
:10038000CF911F910F91FF90EF90DF90CF90BF9092
:10039000AF9008959770FC01F45F849108951F92C7
:1003A0000F920FB60F9211242F933F934F935F93A9
:1003B0006F937F938F939F93AF93BF93EF93FF932D
:1003C0005FD1813019F528D1823008F485C055D12C
:1003D00035D190E0982F88279093D5008093D40052
:1003E0002DD12091D4003091D500282B3093D50009
:1003F0002093D4008091D4009091D5009093D700A1
:100400008093D60009D1811101C0C4D005D18823C1
:1004100049F18091D4009091D5008115904948F020
:100420000DD12091D4003091D500682F822F89D032
:100430000FC08091D4009091D50097FF04C0759BA8
:100440004BC026DF49C0FAD08091D4009091D500EE
:100450008091D4009091D50001969093D50080931F
:10046000D4003AC0AFD08032B8F58091D6009091D8
:10047000D7008115904930F08091D6009091D70037
:1004800062D020C08091D6009091D70097FF0DC018
:100490008091D6009091D7008115944830F48091D6
:1004A000D6009091D70076DF0DC08091D600909154
:1004B000D700863030F49927FC01E05AFF4F808145
:1004C00001C08FEF91D08091D6009091D700019616
:1004D0009093D7008093D600FF91EF91BF91AF9199
:1004E0009F918F917F916F915F914F913F912F914C
:1004F0000F900FBE0F901F90189517B813B887E88C
:1005000086B9369A8FE081B9089588EE93E03699DE
:1005100005C084B125B190E0922B08950197B9F7F9
:100520008FEF9FEF0895E199FECF1CBA8EBB6DBB94
:10053000E29AE19A0895E199FECF8EBBE09A8DB3DD
:1005400008958950F0CF8950F6CF1F920F920FB6C1
:100550000F9211248F939F93AF93BF9380912401A7
:1005600090912501A0912601B09127010196A11D2E
:10057000B11D8093240190932501A0932601B0938F
:100580002701BF91AF919F918F910F900FBE0F9058
:100590001F9018951092FC001092FD001092D90047
:1005A0001092DA000895CF93C82FF4DFC09323018F
:1005B000DC9ADE9AD49AD69888EA8DB980EF8EB903
:1005C000CF9108959091DA008091D900981730F476
:1005D0008091DA009091D9008F5D04C08091DA009B
:1005E0009091D900891B0895CF93C82FEBDF8032FB
:1005F00089F0E091DA00F0E0E552FF4FC08380918E
:10060000DA008F5F8093DA008091DA00813210F097
:100610001092DA00CF9108959091FD008091FC0036
:10062000981730F48091FD009091FC008C5D04C01F
:100630008091FD009091FC00891B0895EDDF8823D7
:1006400091F0E091FC00F0E0E250FF4F808190914A
:10065000FC009F5F9093FC009091FC00943220F08E
:100660001092FC0008958FEF08958EB18F70806214
:100670008EB981E08093D80008951092D800089533
:100680008091D80008951F920F920FB60F921124F7
:100690008F9310922201CC9B06C0CE9BFCCF88EAA0
:1006A0008DB980E703C088EF8DB980EF8EB98F9147
:1006B0000F900FBE0F901F9018951F920F920FB6BC
:1006C0000F9211242F933F934F935F936F937F93D8
:1006D0008F939F93AF93BF93EF93FF9380912201EA
:1006E000823009F44EC028F4882359F0813091F10A
:1006F0006DC0843009F44BC038F1853009F44DC029
:1007000065C08FB1882331F08FB186959091230118
:1007100089131DC0789B05C055DF882311F081E047
:100720004FC0789914C078DF882321F08091D800D9
:10073000882369F084E08093220197DF1FB8D69A5E
:100740008EE78EB927DF42C08FB1882319F088EA7F
:100750008DB921C0E091D900F0E0E552FF4F8081D2
:100760008FB98091D9008F5F8093D9008091D90093
:10077000813210F01092D90082E080932201D69A43
:100780000AC083E080932201D6981FB81DC085E07F
:1007900080932201D69880E718C08FB1E091FD00C8
:1007A000F0E0E250FF4F80838091FD008F5F8093E7
:1007B000FD008091FD00843210F01092FD0084E075
:1007C000809322011FB8D69A8EE78EB9FF91EF91E0
:1007D000BF91AF919F918F917F916F915F914F9159
:1007E0003F912F910F900FBE0F901F901895EE27FD
:1007F000FF27AA27BB2708C0A20FB31FE41FF51FBE
:10080000220F331F441F551F96958795779567953F
:1008100098F37040A9F7009799F7BD01CF010895AB
:10082000A1E21A2EAA1BBB1BFD010DC0AA1FBB1FF4
:10083000EE1FFF1FA217B307E407F50720F0A21B66
:10084000B30BE40BF50B661F771F881F991F1A94D3
:1008500069F760957095809590959B01AC01BD01FD
:08086000CF010895F894FFCFC9
:10086800010101000400303132333435363738396C
:100878003A3B3C3D3E3F4B0C800BB40AEA09250944
:1008880057088607C606FF053D057104A503E20261
:060898001D02560199004B
:00000001FF
