:1000000010C02AC029C028C027C026C08AC324C067
:1000100023C0C1C121C020C01FC01EC01DC01FC43D
:1000200038C411241FBECFE5D1E0DEBFCDBF10E044
:10003000A0E6B0E0EEE1FAE002C005900D92A23A2F
:10004000B107D9F720E0A2EAB0E001C01D92A63FB7
:10005000B207E1F702D0E1C4D3CFCF93DF93CDB79E
:10006000DEB76A970FB6F894DEBF0FBECDBF41D2A0
:1000700068D2CE010D966DD2CE014696B5D241D250
:10008000009731F0BC0180E090E0BFD0811177D3C0
:10009000B5D07894FE01769620E030E0612C412CBA
:1000A00041E08191982F9770492A82958F7084271B
:1000B000082F017010E0C801022E01C0880F0A94B9
:1000C000EAF7682A2F5F3F4F2330310551F7312C73
:1000D000212C712C198E512CAA24A394B12C832D80
:1000E0008621681609F489C0FE013D966F017F01E3
:1000F00000E010E0872D90E0809590958421952177
:10010000002E02C0959587950A94E2F780FF0AC0F9
:10011000F7016081802FCAD2002E01C0880F0A9497
:10012000EAF7782A0F5F1F4FFFEFEF1AFF0A03303D
:10013000110501F7CE0101967C01FE013D964F01AC
:1001400000E010E00A8F822D90E0002E02C095950D
:1001500087950A94E2F780FF0CC0F4016185802F37
:1001600079D2C501002E01C0880F0A94EAF7382A17
:1001700034C0F98D8F2F90E0002E02C095958795A1
:100180000A94E2F780FF12C0F60143815481F7011F
:100190006081718182819381A1D290E00A8C02C03A
:1001A000880F991F0A94E2F7282A17C0F401818565
:1001B000982F97708721981310C0AAD2F7016083F7
:1001C000718382839383C5010A8C02C0880F991FB3
:1001D0000A94E2F7F98DF82BF98F0F5F1F4F2FEF7D
:1001E000821A920A82E0C80ED11C94E0E90EF11C3A
:1001F0000330110509F0A6CF72CFFFCF82E386BF8F
:1002000082E089BF80BF83BF0895CF92DF92EF92D3
:10021000FF920F931F9324EE3CE040E050E0E4D3C4
:100220008B019C018AE036952795179507958A954D
:10023000D1F7E6E7F0E080E090E0419151916A016A
:1002400062E3C61AD108E12CF12CC016D106E206F1
:10025000F30670F44E5C5F4F60E070E00417150722
:100260002607370728F4FC01EA59FF4F808105C0B3
:1002700001968031910509F780E01F910F91FF9061
:10028000EF90DF90CF900895AF92BF92CF92DF9220
:10029000EF92FF920F931F93CF93DF93C091A20031
:1002A000D091A300DF77D45FA3D2E82E8170B82E5F
:1002B0001DB8D49880EF8EB980E187BF6E01F12C14
:1002C0000FEF10E0AA24A394FE14D1F0A3D290E083
:1002D000C0FE10C0982F8827082B192B07B600FCEA
:1002E000FDCFE199FECFF6010801A0925700E895F5
:1002F000112401C08C01FFEFCF1ADF0AF394E4CF81
:10030000FE01EF0DF11DBB2099F08091A2009091AC
:10031000A30080FD0DC0C8019F6F07B600FCFDCF94
:10032000E199FECF21E00C0120935700E8951124BC
:10033000E091A200F091A300FF77F45FCF01807CF1
:100340009F70E817F90749F407B600FCFDCFE19963
:10035000FECF83E080935700E89507B600FCFDCF01
:10036000E199FECF85E080935700E89588EA8DB942
:1003700080EF8EB9D49ADF91CF911F910F91FF90AA
:10038000EF90DF90CF90BF90AF9008959770FC01F1
:10039000F45F849108951F920F920FB60F9211246B
:1003A0002F933F934F935F936F937F938F939F937D
:1003B000AF93BF93EF93FF934FD2813019F518D2CB
:1003C000823008F485C045D225D290E0982F882746
:1003D0009093A3008093A2001DD22091A20030919F
:1003E000A300282B3093A3002093A2008091A200A9
:1003F0009091A3009093A5008093A400F9D181115E
:1004000001C0B4D1F5D1882349F18091A200909127
:10041000A3008115904948F0FDD12091A2003091B0
:10042000A300682F822F89D00FC08091A2009091E5
:10043000A30097FF04C0759B4BC026DF49C0EAD1DB
:100440008091A2009091A3008091A2009091A300BE
:1004500001969093A3008093A2003AC09FD180326E
:10046000B8F58091A4009091A5008115904930F0D5
:100470008091A4009091A50062D020C08091A4003A
:100480009091A50097FF0DC08091A4009091A500C8
:100490008115944830F48091A4009091A50076DFF6
:1004A0000DC08091A4009091A500863030F499276A
:1004B000FC01E05AFF4F808101C08FEF81D1809114
:1004C000A4009091A50001969093A5008093A400AC
:1004D000FF91EF91BF91AF919F918F917F916F911C
:1004E0005F914F913F912F910F900FBE0F901F90F2
:1004F000189517B813B887E886B9369A8FE081B98E
:10050000089588EE93E0369905C084B125B190E056
:10051000922B08950197B9F78FEF9FEF0895E19916
:10052000FECF1CBA8EBB6DBBE29AE19A0895E199A9
:10053000FECF8EBBE09A8DB308958950F0CF8950DD
:10054000F6CF8DE78ABD82E08CB91FBC8BE08EBDF3
:100550000895EF92FF921F93CF93DF93EC0187EF03
:10056000E6DF888388EFE3DF898389EFE0DF8A8332
:100570007E0183E0E80EF11C1AEF812FD8DF833370
:1005800028F490E06AE070E01ED218C09DEC980F4D
:10059000953038F490E064E670E015D2845F9E4EAA
:1005A0000DC098EC980F933038F490E064EF71E050
:1005B0000AD2845F904902C084EC99E0F7018193EC
:1005C00091937F011F5F1D3FC1F68DEFB0DF8987DB
:1005D0008EEFADDF8A878FEFAADF8B87DF91CF9118
:1005E0001F91FF90EF900895CF93DF93DC01E6E930
:1005F000F0E0CFE9D0E021E030E08D9184FD23C030
:1006000083FD0DC048B3B901028002C0660F771F99
:100610000A94E2F7962F9095942398BB0AC088B36A
:10062000A901028002C0440F551F0A94E2F7482B2B
:1006300048BB87B3A901008002C0440F551F0A942C
:10064000E2F7482B47BB3396CE17DF07B1F6DF91B1
:10065000CF91089564FD29C090E048B363FD12C0B6
:1006600063E070E0B0D18A569F4F21E030E0B901DD
:10067000FC01028002C0660F771F0A94E2F7CB01EB
:10068000842B12C063E070E09ED18A569F4F21E018
:1006900030E0B901FC01028002C0660F771F0A94A6
:1006A000E2F7CB018095842388BB0895CF93C62FB2
:1006B000E82FF0E0E156FF4F808187B9369A21DFBD
:1006C0009C0136952795369527956C2F70E081E033
:1006D0002617370708F480E0CF9108950F931F93F2
:1006E0000091F2001091F3002091F4003091F50098
:1006F000061B170B280B390B60E070E081E04017F8
:1007000051076207730708F080E01F910F91089569
:100710006091F2007091F3008091F4009091F500E7
:1007200008951F920F920FB60F9211248F939F93EB
:10073000AF93BF938091F2009091F300A091F400E9
:10074000B091F5000196A11DB11D8093F200909328
:10075000F300A093F400B093F500BF91AF919F9187
:100760008F910F900FBE0F901F9018951092CA0096
:100770001092CB001092A7001092A8000895CF937A
:10078000C82FF4DFC093F100DC9ADE9AD49AD69891
:1007900088EA8DB980EF8EB9CF9108959091A80025
:1007A0008091A700981730F48091A8009091A7003D
:1007B0008F5D04C08091A8009091A700891B0895C7
:1007C000CF93C82FEBDF803289F0E091A800F0E0F2
:1007D000E755FF4FC0838091A8008F5F8093A800EA
:1007E0008091A800813210F01092A800CF91089556
:1007F0009091CB008091CA00981730F48091CB0083
:100800009091CA008C5D04C08091CB009091CA0089
:10081000891B0895EDDF882391F0E091CA00F0E094
:10082000E453FF4F80819091CA009F5F9093CA006C
:100830009091CA00943220F01092CA0008958FEF70
:1008400008958EB18F7080628EB981E08093A6008A
:1008500008951092A60008958091A60008951F9211
:100860000F920FB60F9211248F931092F000CC9B31
:1008700006C0CE9BFCCF88EA8DB980E703C088EF25
:100880008DB980EF8EB98F910F900FBE0F901F9092
:1008900018951F920F920FB60F9211242F933F932A
:1008A0004F935F936F937F938F939F93AF93BF9378
:1008B000EF93FF938091F000823009F44EC028F44A
:1008C000882359F0813091F16DC0843009F44BC018
:1008D00038F1853009F44DC065C08FB1882331F0FF
:1008E0008FB186959091F10089131DC0789B05C04A
:1008F00055DF882311F081E04FC0789914C078DF6C
:10090000882321F08091A600882369F084E08093F9
:10091000F00097DF1FB8D69A8EE78EB927DF42C066
:100920008FB1882319F088EA8DB921C0E091A70022
:10093000F0E0E755FF4F80818FB98091A7008F5F6E
:100940008093A7008091A700813210F01092A70039
:1009500082E08093F000D69A0AC083E08093F00092
:10096000D6981FB81DC085E08093F000D69880E728
:1009700018C08FB1E091CB00F0E0E453FF4F8083CB
:100980008091CB008F5F8093CB008091CB0084322D
:1009900010F01092CB0084E08093F0001FB8D69A3C
:1009A0008EE78EB9FF91EF91BF91AF919F918F919B
:1009B0007F916F915F914F913F912F910F900FBE5B
:1009C0000F901F9018950024552704C0080E591F3A
:1009D000880F991F009729F076956795B8F37105F0
:1009E000B9F7802D952F0895EE27FF27AA27BB275B
:1009F00008C0A20FB31FE41FF51F220F331F441FAF
:100A0000551F969587957795679598F37040A9F748
:0E0A1000009799F7BD01CF010895F894FFCF2C
:100A1E0001010100040030313233343536373839B4
:100A2E003A3B3C3D3E3F4B0C800BB40AEA0925098C
:100A3E0057088607C606FF053D057104A503E202A9
:100A4E001D0256019900000000010101020202017F
:020A5E00020391
:00000001FF
