:1000000010C02AC029C028C027C026C041C224C0B1
:1000100023C068C121C020C01FC01EC01DC0D6C2E1
:10002000EFC211241FBECFE5D1E0DEBFCDBF10E08F
:10003000A0E6B0E0EAE6F7E002C005900D92A6392E
:10004000B107D9F720E0A6E9B0E001C01D92AA3EB1
:10005000B207E1F76BD087C3D3CF87E087BBD798D0
:100060000895CF9381E087B9369AF2D1BC0180E040
:1000700090E024EE3CE040E050E05CD3DC01CB01BA
:100080004AE0B695A795979587954A95D1F78258F6
:100090009340A109B109C1E0863C9105A105B105D4
:1000A00008F0C0E082E087B9369AD2D1BC0180E086
:1000B00090E024EE3CE040E050E03CD3DC01CB019A
:1000C0003AE0B695A795979587953A95D1F78555D6
:1000D0009140A109B1098397A105B10508F4C26057
:1000E00083E087B9369AB4D1BC0180E090E024EE79
:1000F0003CE040E050E01ED3DC01CB012AE0B695A5
:10010000A795979587952A95D1F781579240A10990
:10011000B10981349105A105B10508F4C460CF99F6
:1001200002C0C095C770C8BBCF91089596DF88D133
:100130008FD1009731F0BC0180E090E00DD08111AB
:10014000D5D103D078948DDFFECF82E386BF82E0E5
:1001500089BF80BF83BF0895CF92DF92EF92FF9255
:100160000F931F9324EE3CE040E050E0E3D28B017C
:100170009C018AE036952795179507958A95D1F7C2
:10018000E6E7F0E080E090E0419151916A0162E39E
:10019000C61AD108E12CF12CC016D106E206F306EE
:1001A00070F44E5C5F4F60E070E00417150726079F
:1001B000370728F4FC01EA59FF4F808105C00196FA
:1001C0008031910509F780E01F910F91FF90EF902A
:1001D000DF90CF900895AF92BF92CF92DF92EF92CF
:1001E000FF920F931F93CF93DF93C0919600D0910E
:1001F0009700DF77D45FB3D1E82E8170B82E1DB899
:10020000D49880EF8EB980E187BF6E01F12C0FEF9B
:1002100010E0AA24A394FE14D1F0B3D190E0C0FE64
:1002200010C0982F8827082B192B07B600FCFDCF8C
:10023000E199FECFF6010801A0925700E89511243C
:1002400001C08C01FFEFCF1ADF0AF394E4CFFE0167
:10025000EF0DF11DBB2099F08091960090919700D1
:1002600080FD0DC0C8019F6F07B600FCFDCFE1996E
:10027000FECF21E00C0120935700E8951124E09176
:100280009600F0919700FF77F45FCF01807C9F701C
:10029000E817F90749F407B600FCFDCFE199FECF56
:1002A00083E080935700E89507B600FCFDCFE19905
:1002B000FECF85E080935700E89588EA8DB980EFFE
:1002C0008EB9D49ADF91CF911F910F91FF90EF904B
:1002D000DF90CF90BF90AF9008959770FC01F45FCE
:1002E000849108951F920F920FB60F9211242F93AD
:1002F0003F934F935F936F937F938F939F93AF93AE
:10030000BF93EF93FF935FD1813019F528D18230ED
:1003100008F485C055D135D190E0982F8827909367
:100320009700809396002DD12091960030919700F0
:10033000282B3093970020939600809196009091FF
:100340009700909399008093980009D1811101C082
:10035000C4D005D1882349F18091960090919700EF
:100360008115904948F00DD1209196003091970069
:10037000682F822F89D00FC08091960090919700AE
:1003800097FF04C0759B4BC026DF49C0FAD080910F
:100390009600909197008091960090919700019619
:1003A00090939700809396003AC0AFD08032B8F512
:1003B00080919800909199008115904930F080913A
:1003C00098009091990062D020C0809198009091FF
:1003D000990097FF0DC08091980090919900811528
:1003E000944830F4809198009091990076DF0DC088
:1003F0008091980090919900863030F49927FC0103
:10040000E05AFF4F808101C08FEF91D0809198001A
:100410009091990001969093990080939800FF9194
:10042000EF91BF91AF919F918F917F916F915F916C
:100430004F913F912F910F900FBE0F901F901895E5
:1004400017B813B887E886B9369A8FE081B908954E
:1004500088EE93E0369905C084B125B190E0922BE7
:1004600008950197B9F78FEF9FEF0895E199FECFB7
:100470001CBA8EBB6DBBE29AE19A0895E199FECF5A
:100480008EBBE09A8DB308958950F0CF8950F6CF96
:100490001F920F920FB60F9211248F939F93AF93D9
:1004A000BF938091E6009091E700A091E800B091A1
:1004B000E9000196A11DB11D8093E6009093E7002D
:1004C000A093E800B093E900BF91AF919F918F9105
:1004D0000F900FBE0F901F9018951092BE001092B3
:1004E000BF0010929B0010929C000895CF93C82FDC
:1004F000F4DFC093E500DC9ADE9AD49AD69888EAB5
:100500008DB980EF8EB9CF91089590919C00809124
:100510009B00981730F480919C0090919B008F5D18
:1005200004C080919C0090919B00891B0895CF93FB
:10053000C82FEBDF803289F0E0919C00F0E0E356B9
:10054000FF4FC08380919C008F5F80939C008091BF
:100550009C00813210F010929C00CF9108959091F0
:10056000BF008091BE00981730F48091BF00909139
:10057000BE008C5D04C08091BF009091BE00891BBD
:100580000895EDDF882391F0E091BE00F0E0E054A3
:10059000FF4F80819091BE009F5F9093BE0090912D
:1005A000BE00943220F01092BE0008958FEF08959F
:1005B0008EB18F7080628EB981E080939A00089529
:1005C00010929A00089580919A0008951F920F92B8
:1005D0000FB60F9211248F931092E400CC9B06C0AB
:1005E000CE9BFCCF88EA8DB980E703C088EF8DB938
:1005F00080EF8EB98F910F900FBE0F901F901895BE
:100600001F920F920FB60F9211242F933F934F9387
:100610005F936F937F938F939F93AF93BF93EF936A
:10062000FF938091E400823009F44EC028F48823BF
:1006300059F0813091F16DC0843009F44BC038F12C
:10064000853009F44DC065C08FB1882331F08FB17A
:1006500086959091E50089131DC0789B05C055DFF4
:10066000882311F081E04FC0789914C078DF882387
:1006700021F080919A00882369F084E08093E4005F
:1006800097DF1FB8D69A8EE78EB927DF42C08FB1A9
:10069000882319F088EA8DB921C0E0919B00F0E031
:1006A000E356FF4F80818FB980919B008F5F8093CD
:1006B0009B0080919B00813210F010929B0082E0A1
:1006C0008093E400D69A0AC083E08093E400D69831
:1006D0001FB81DC085E08093E400D69880E718C05D
:1006E0008FB1E091BF00F0E0E054FF4F8083809134
:1006F000BF008F5F8093BF008091BF00843210F0F5
:100700001092BF0084E08093E4001FB8D69A8EE771
:100710008EB9FF91EF91BF91AF919F918F917F9192
:100720006F915F914F913F912F910F900FBE0F905E
:100730001F901895EE27FF27AA27BB2708C0A20FF6
:10074000B31FE41FF51F220F331F441F551F96953B
:1007500087957795679598F37040A9F7009799F773
:0A076000BD01CF010895F894FFCF0A
:10076A00010101000400303132333435363738396B
:10077A003A3B3C3D3E3F4B0C800BB40AEA09250943
:10078A0057088607C606FF053D057104A503E20260
:06079A001D02560199004A
:00000001FF
